:020000040000FA
:10000000A8060010E1000000E9000000EB0000007D
:10001000ED000000EF000000F10000000000000013
:10002000000000000000000000000000F3000000DD
:10003000F500000000000000F7000000B101000022
:10004000FB000000E3330000FB000000FB000000A9
:10005000FB000000FB000000FB000000FB000000B4
:10006000FB000000FB000000FB000000FB000000A4
:10007000FB000000FB000000FB000000FB00000094
:10008000FB000000FB000000FB000000FB00000084
:10009000FB000000FB000000FB000000FB00000074
:1000A000393D0000FB000000FB000000FB000000E9
:1000B000FB000000FB000000FB000000FB00000054
:1000C000FB000000FB000000FB000000DFF80CD08C
:1000D00003F09AFF004800475D130000A8060010D7
:1000E0000648804706480047FEE7FEE7FEE7FEE7D2
:1000F000FEE7FEE7FEE7FEE7FEE7FEE79904000005
:10010000CD0000002748006840F400402549C4396C
:10011000C1F8C4002448006A40F030402249086217
:100120000846006C40F07C0008647047032808D241
:100130001D49496B1D4A52F8202011431A4A516348
:1001400007E01949496D194A52F820201143164A0F
:1001500051657047032808D21349496B134A52F876
:1001600020209143104A516307E00F49496D0F4A1F
:1001700052F8202091430C4A5165704710B504464F
:1001800000230BE001209840204018B11846FFF7EB
:10019000CDFF02E01846FFF7DDFF5B1C082BF1DB0B
:1001A00010BD0000C4C00F4000C009200060000066
:1001B0001D480068401C1C490860084600680A2861
:1001C00018D006DC032809D005280BD0082827D131
:1001D0000CE00D2817D00F2822D118E00120134978
:1001E00008701EE00120124908701AE001200F4932
:1001F000087016E001200E4908700E480068401C87
:100200000C4908600DE001200849087009E0002051
:10021000054908600120084908700549087000BFB9
:1002200000BF00BF70470000100000101500001054
:10023000140000101800001016000010124800688A
:1002400040F400401049C439C1F8C4000F48C068E8
:100250000F4908400D49C8600E48006A20F0F2605E
:100260000C49086270470B49496B792202EA115028
:10027000704700B50023FFF7F6FF0346792020EA18
:100280000303184600BD0000C4C00F4000C0024078
:10029000FF3CC0FF00C009202DE9F05F05460020AB
:1002A00092469B4688460646814640241BE02846E7
:1002B00041464746224603F096FE53465A46C01A28
:1002C000914110D311461846224603F07DFE2D1AA7
:1002D00067EB01084F4622460120002103F074FE1F
:1002E00017EB00094E41201EA4F10104DFDC484653
:1002F00031462A464346BDE8F09F7047FFFFFFFFA7
:100300002DE9F047F7480068C0F3016003287DD16C
:10031000F4488430006800F0030030B1012830D088
:10032000022859D003282BD100E000BFED48006817
:10033000C0F30740441C0221EA488838D0F88800FE
:10034000C0F30E00401CA1FB0001E74B4FF0000C76
:10035000A0FB037901FB039100FB0C1122466346CD
:100360003846FFF799FF0546DE487C300068C0B28A
:10037000441C224600232846FFF78EFFDB49086015
:1003800056E0D8480068C0F30740441C0221D54815
:100390008838D0F88800C0F30E00401CA1FB001084
:1003A000D34A4FF0000CA1FB027900FB029001FB45
:1003B0000C01224663463846FFF76EFF0546C948E2
:1003C0007C300068C0B2441C224600232846FFF758
:1003D00063FFC64908602BE0C2480068C0F30740CD
:1003E000441C0221BF488838D0F88800C0F30E00B2
:1003F000401CA1FB00124FF400400023A1FB007938
:1004000002FB009001FB0301224600E011E03846A8
:10041000FFF742FF0546B3487C300068C0B2441C79
:10042000224600232846FFF737FFB049086000BF87
:1004300030E0AC488430006800F0030030B101289F
:1004400010D0022819D0032823D100E000BFA5480E
:100450007C300068C0B2401CA349B1FBF0F0A34956
:10046000086016E09F487C300068C0B2401CA0497C
:10047000B1FBF0F09D4908600BE09A487C300068C1
:10048000C0B2401C4FF40041B1FBF0F09749086046
:1004900000BF00BFBDE8F087202096490860914862
:1004A0008838D0F8A00100F0200030B100BF91489A
:1004B000006800F040000028F9D0032089497C3111
:1004C0000860002087498839C1F8A80189490C31A2
:1004D0000860012083498431086087488149091FE9
:1004E0000860AA207F49091D086055200860012086
:1004F0007C4908390860AA207A49091D08605520FE
:1005000078498839C1F88C0000BF7648006800F04F
:1005100080600028F9D00320724908390860AA20B9
:1005200070498839C1F88C0055206E49091D086052
:1005300000BF6C48006800F04070B0F1407FF8D117
:10054000232068491C310860AA2066498839C1F80F
:10055000AC005520634924310860012061491831FD
:100560000860AA205F492431086055205D49883918
:10057000C1F8AC0000BF5B482030006800F4806028
:100580000028F8D00320574918310860AA2055499F
:100590008839C1F8AC00552052492431086000BFA9
:1005A00050482030006800F44070B0F5407FF7D12B
:1005B00052484C493C31086000204A498839C1F80A
:1005C000C8010846006820F4704040F4804008608C
:1005D000704744480068C0F3016003285ED1414879
:1005E0008430006800F0030030B1012820D00228D8
:1005F00039D0032851D100E000BF3A480068C0F369
:100600000E00401C410037488838D0F88800C0F3FD
:100610000740401CB1FBF0F03349484331497C317D
:100620000968C9B2491CB0FBF1F03549086034E0F3
:100630002C480068C0F30E00401C4100294888384F
:10064000D0F88800C0F30740401CB1FBF0F0284907
:10065000484324497C310968C9B2491CB0FBF1F018
:100660002749086019E01F480068C0F30E00401CCD
:1006700041001C488838D0F88800C0F30740401C6F
:10068000B1FBF0F0C10317487C300068C0B2401CD9
:10069000B1FBF0F01A49086000BF3FE01148843018
:1006A000006800F0030030B1012810D0022829D0E2
:1006B000032832D100E000BF0A487C300068C0B295
:1006C000401C0949B1FBF0F00D49086025E00548E0
:1006D0007C300068C0B2401C0549B1FBF0F008490D
:1006E00008601AE088C00F4000093D0000000010BB
:1006F000001BB700A0C10F4063000500DE8728047F
:100700000400001006480068C0B2401C4FF40041CD
:10071000B1FBF0F00349086000BF00BF7047000064
:1007200004C10F4004000010800400BF011EA0F1AE
:100730000100FBD170472DE9F04106460D46002728
:10074000012D06D1FE48006840F40070FC490860A5
:1007500005E0FB48006820F40070F94908600724B0
:1007600022E08020F649C8610120FFF7DDFF012D5E
:100770000CD10120A040304018B16802F0498861D6
:100780000BE04FF40070EE49C86106E0EC484069A8
:10079000C0F34020A0403843C7B28020E8498861B8
:1007A0000120FFF7C1FF641E002CDADA3846BDE8ED
:1007B000F08110B504464020E149C861702000F086
:1007C0006CFD002000F069FD204600F066FD402031
:1007D000DB49886110BD10B504464020D849C86186
:1007E000722000F05AFD201200F057FDE0B200F038
:1007F00054FD4020D249886110BD70B50546284699
:10080000FFF7D7FF00BF00244020CD49C861732007
:1008100000F043FD002000F040FD002000F03DFD11
:1008200004464FF6FF7000EA0424002000F035FD76
:1008300004434020C2498861204670BD10B5C148BC
:10084000006820F47C20BF4908600846006C40F432
:100850002A200864BA48006840F08000B84908605F
:1008600040208861802088614020C861012170207B
:10087000FFF761FF01210020FFF75DFF4020B04935
:100880008861C86101217320FFF755FF00210846E8
:10089000FFF751FF04464020A949886108460068D7
:1008A00020F080000860A748006840F42820A5498F
:1008B00008600846006C20F47F200864204610BDC4
:1008C00010B5A148006840F480609F49C439C1F860
:1008D000C4000846D0F8A80140F40010C1F8A801EF
:1008E0009848406A20F07060964948629448D0F871
:1008F000800040F04050924980310860880590495E
:10090000C1F898000846006840F0400008604020A8
:1009100088618C48006820F47C208A490860084679
:10092000006840F42820086040F2C710874908603A
:10093000022008614860FFF781FF04461CB90020CF
:10094000FFF75BFF0446472C7DD1012080490870EA
:100950000021EA2000F0C4FC2021EB2000F0C0FCC4
:100960000C21EC2000F0BCFCC721ED2000F0B8FC0D
:100970003821E82000F0B4FC1021E92000F0B0FCA0
:100980000121F12000F0ACFC1021F22000F0A8FCC5
:100990000121402000F0A4FC0021412000F0A0FC37
:1009A0000021422000F09CFC1021432000F098FC24
:1009B0000E21442000F094FC2421452000F090FCFE
:1009C0000421462000F08CFC5021472000F088FCD8
:1009D0000221482000F084FC1321492000F080FC13
:1009E00019214A2000F07CFC19214B2000F078FCF2
:1009F00016214C2000F074FC1B21502000F070FCEC
:100A00003121512000F06CFC2F21522000F068FCB5
:100A10003F21532000F064FC3F21542000F060FC93
:100A20003E21552000F05CFC2F21562000F058FCA0
:100A30007B21572000F054FC0921582000F050FC85
:100A40000621592000E094E000F04AFC06215A20DB
:100A500000F046FC0C215B2000F042FC1D215C20D4
:100A600000F03EFCCC215D2000F03AFC1B21084642
:100A700000F036FC01211A2000F032FC2F21242046
:100A800000F02EFC5721252000F02AFC882123208D
:100A900000F026FC3621182000F022FC012119204C
:100AA00000F01EFC0021012000F01AFC88211F200C
:100AB00000F016FC1420FFF737FE82211F2000F003
:100AC0000FFC0520FFF730FE92211F2000F008FCEC
:100AD0000520FFF729FED2211F2000F001FC052090
:100AE000FFF722FE5521172000F0FAFB00210846EF
:100AF00000F0F6FB11212F2000F0F2FB0021312045
:100B000000F0EEFB0021322000F0EAFB3821282023
:100B100000F0E6FB1420FFF707FE3C21282000F040
:100B2000DFFBA821162000F0DBFB00210E2000F0E7
:100B3000D7FB00210F2000F0D3FB0121102009E09A
:100B400000C0092000C00240C4C00F4000000340A4
:100B50000C00001000F0C4FB4021112000F0C0FB8D
:100B60000021122000F0BCFB0021132000F0B8FB94
:100B700092E10020F94908704FF48071012000F0E3
:100B8000AFFB4FF4E061022000F0AAFB002104203B
:100B900000F0A6FB40F20721082000F0A1FB002195
:100BA000092000F09DFB00210A2000F099FB0021A4
:100BB0000C2000F095FB00210D2000F091FB00219E
:100BC0000F2000F08DFB0021102000F089FB002198
:100BD000112000F085FB0021122000F081FB002194
:100BE000132000F07DFB1420FFF79EFD41F2B021A1
:100BF000102000F075FB0721112000F071FB05208B
:100C0000FFF792FD40F2BD11122000F069FB0520B4
:100C1000FFF78AFD4FF4A051132000F061FB0E2175
:100C2000292000F05DFB0520FFF77EFD002120203C
:100C300000F056FB0021212000F052FBA4F5A84053
:100C4000083838B1A0F57C50183800287ED0052827
:100C50007DD150E040F60D31302000F041FB41F6EF
:100C60002311312000F03CFB41F62641322000F0F8
:100C700037FB42F21C61332000F032FB42F2194193
:100C8000342000F02DFB40F60B51352000F028FBFE
:100C900041F20601362000F023FB4FF4C2613720F9
:100CA00000F01EFB40F20671382000F019FB4FF4F3
:100CB0004171392000F014FB40F605613A2000F044
:100CC0000FFB40F601613B2000F00AFB4FF48771F7
:100CD0003C2000F005FB40F20E513D2000F000FBEF
:100CE00040F203413E2000F0FBFA40F207613F2052
:100CF00000F0F6FA61E00021302000F0F1FA40F255
:100D00000761312000F0ECFA40F20531322000F0AA
:100D1000E7FA0021352000F0E3FA41F204613620C1
:100D200000F0DEFA4FF40171372000F0D9FA01210A
:100D3000382000F0D5FA40F20771392000F0D0FADF
:100D400000213C2000F0CCFA0F2101E005E003E097
:100D50003D2000F0C5FA30E000BF0621302000F051
:100D6000BFFA40F20111312000F0BAFA032132201B
:100D700000F0B6FA4FF48371352000F0B1FA40F676
:100D80000231362000F0ACFA40F20231372000F098
:100D9000A7FA40F20771382000F0A2FA07213920A3
:100DA00000F09EFA4FF4C0613C2000F099FA40F246
:100DB0000B213D2000F094FA00BF00BF002150201D
:100DC00000F08EFAEF21512000F08AFA0021522023
:100DD00000F086FA40F23F11532000F081FAA4F5AA
:100DE000A840083830B1A0F57C50183850B105281B
:100DF00007D100E000BF4FF41C51602000F070FAF2
:100E000006E000BF4FF42741602000F069FA00BF00
:100E100000BF0121612000F063FA00216A2000F088
:100E20005FFA0021802000F05BFA0021812000F0B1
:100E300057FA0021822000F053FA0021832000F0AD
:100E40004FFA0021842000F04BFA0021852000F0A9
:100E500047FA1021902000F043FA0021922000F080
:100E60003FFA0321932000F03BFA4FF4887195205C
:100E700000F036FA0021972000F032FA0021982085
:100E800000F02EFA41F23801032000F029FA40F276
:100E90003711072000F024FA4FF0805030490860E5
:100EA00010BD2DE9F04704460D4616461F462B4857
:100EB000007860B3A019A0F10108E819A0F10109B8
:100EC000C4F30F21022000F00BFAE1B2032000F07E
:100ED00007FAC8F30F21042000F002FA08F0FF011E
:100EE000052000F0FDF9C5F30F21062000F0F8F908
:100EF000E9B2072000F0F4F9C9F30F21082000F04F
:100F0000EFF909F0FF01092000F0EAF91BE0A9B2AE
:100F1000502000F0E5F9E819401E81B2512000F0A0
:100F2000DFF9A1B2522000F0DBF9A019401E81B216
:100F3000532000F0D5F9A9B2202000F0D1F9A1B2D8
:100F4000212000F0CDF9BDE8F08710B5F0234FF473
:100F5000A07200210846FFF7A4FF10BD0C0000108E
:100F600098C0092070B504460D46E248007820B3C9
:100F7000C4F30F21022000F0B3F9E1B2032000F026
:100F8000AFF9C4F30F21042000F0AAF9E1B2052063
:100F900000F0A6F9C5F30F21062000F0A1F9E9B28F
:100FA000072000F09DF9C5F30F21082000F098F903
:100FB000E9B2092000F094F907E0A9B2202000F07E
:100FC0008FF9A1B2212000F08BF92220FFF7F1FB6D
:100FD000C9494888FFF7FFFB70BDC7494880704783
:100FE000C5490880704770B50546FFF7AEFF22205F
:100FF000FFF7DFFB00F05FF9002403E0284600F074
:1010000066F9641CB4F5963FF8D300F05CF970BD46
:101010002DE9FF5F8346164699460E9F4B463246A2
:1010200058460199FFF73DFF2220FFF7C2FB00F071
:1010300042F9F01D4FEAD00ABAF1010F16D100258E
:1010400011E097F800807F1C002409E028FA04F1E1
:1010500001F00101A84A32F8110000F038F9641CCF
:10106000B442F3D36D1C4D45EBD318E0BAF1020F37
:1010700015D1002511E0B7F80080BF1C002409E05D
:1010800028FA04F101F001019B4A32F8110000F046
:101090001EF9641CB442F3D36D1C4D45EBD300F034
:1010A00012F9BDE8FF9FF8B505460E4617461C46E7
:1010B000A4F12000C4B217B1012F1CD10CE08F485D
:1010C00000EBC400E90006EB460200905000082344
:1010D0000622FFF79DFF0EE004EB4400884901EB78
:1010E000001005EB4502D1000090300118231022BA
:1010F000FFF78EFF00BF00BFF8BD2DE9F0410646A7
:101100000D4617461C4607E014F8013B29466D1CA6
:101110003A463046FFF7C7FF20780028F4D1BDE8F3
:10112000F0812DE9F05F8046894614461F46DDF8C0
:1011300028A0D3463B46224649464046FFF7B1FE2B
:101140002220FFF736FB00F0B6F8781E00FB04F50E
:101150000AE0002605E0A9193BF8110000F0B7F8F5
:10116000761CA642F7D32D1B002DF2DA00F0ABF867
:10117000BDE8F09F2DE9F0478046A0264FF07809A2
:1011800047464FEA4903720000210846FFF789FEEF
:101190002220FFF70EFB00F08EF8A9F1010000FB02
:1011A00006F51EE000240AE0291937F8110000F0C6
:1011B0008EF8291937F8110000F089F8641CB44240
:1011C000F2DB00240AE0291937F8110000F07FF85B
:1011D000291937F8110000F07AF8641CB442F2DBE8
:1011E000AD1B002DDEDA00F06EF8BDE8F0872DE9CA
:1011F000FE4F06460F4615469A4678200190A024D9
:10120000CDF800A0F023620000210846FFF749FE58
:101210002220FFF7CEFA00F04EF80198401E6043FE
:1012200007FB040822E0012002901AE0B1460FE01B
:101230004FF0010B08E008EB0902009931F81200A9
:1012400000F045F80BF1010BAB45F4D909F10109A8
:101250006000B0FBF5F030444845E9D80298401CE6
:1012600002900298A842E1D9A8EB040807FB04F019
:10127000401E4045D7D300F026F8BDE8FE8F10B5DC
:1012800004462046FFF795FA10BD70B504460D469A
:101290002946204600F024F870BD014619488160B7
:1012A00000BF1848C06800F004000028F9D01548B5
:1012B0008068C0B2704710B540201349C8617220E1
:1012C000FFF7EBFF10BD40200F498861704710B554
:1012D00004462012FFF7E1FFE0B2FFF7DEFF10BD8A
:1012E00070B505460C462846FFF763FA2046FFF71F
:1012F00072FA70BD0C000010080000107E4700005C
:10130000FE4A00000000034000C0092010B51F2065
:10131000FFF766FE4FF6E070FFF75FFE79A301224C
:1013200000210846FFF7E9FE7CA3012200211046B8
:10133000FFF7E3FE4FF6FF70FFF752FE1F20FFF7A7
:101340004CFE7CA3012200210820FFF7D6FE7FA3DC
:10135000012200210920FFF7D0FE10BD0025002644
:101360000124FEF76BFFFEF7CDFEFFF7A9FA4FF65B
:10137000FF70FFF738FEFFF7C9FF79480068642265
:10138000B0FBF2F1481EB0F1807F00D31DE0481E93
:101390004FF0E022506150171F22002804DBD306D3
:1013A0001F0E704B1F5408E0D3064FEA136C6E4BB0
:1013B00000F00F073F1F03F807C000BF00204FF0E9
:1013C000E02290610720106100BF9AE0FEF751FF14
:1013D0000546B54220D0202D05D1032C01DB032486
:1013E00019E0641C17E0082D05D1012C01DC012453
:1013F00011E0641E0FE0012D0DD1012C02D100F08F
:1014000011F908E0022C02D102F07EF803E0032C6F
:1014100001D100F003FB2E46012C22D1FFF776FF0D
:101420004FF6E070FFF7DCFD1F20FFF7D6FD4FA35E
:10143000012200210420FFF760FE4FF6FF70FFF746
:10144000CFFD1F20FFF7C9FD4DA30122002105207C
:10145000FFF753FE4FA3012200210620FFF74DFEA8
:101460004FE0022C29D1FFF751FF4FF6FF70FFF735
:10147000B7FD1F20FFF7B1FD49A301220021042081
:10148000FFF73BFE4FF6E070FFF7AAFD1F20FFF7C6
:10149000A4FD48A3012200210520FFF72EFE4FF6F0
:1014A000FF70FFF79DFD1F20FFF797FD39A3012275
:1014B00000210620FFF721FE23E0032C21D1FFF7B6
:1014C00025FF4FF6FF70FFF78BFD1F20FFF785FD0F
:1014D00033A3012200210420FFF70FFE28A30122DD
:1014E00000210520FFF709FE4FF6E070FFF778FDB9
:1014F0001F20FFF772FD34A3012200210620FFF711
:10150000FCFD63E7434F453731382050726F6A6501
:1015100063742044656D6F200000000020202020AF
:10152000204D61696E204D656E75202020202020A1
:1015300000000000557365204A6F79737469636B0E
:101540002055702F446F776E0000000020205365F7
:101550006C65637420746F2043686F6F736500005F
:101560000000001000E400E018ED00E020203E2024
:1015700050686F746F2047616C6C65727900000071
:1015800020202020417564696F20506C617965725C
:10159000000000002020202047616D650000000051
:1015A0002020202050686F746F2047616C6C65723A
:1015B0007900000020203E20417564696F20506C46
:1015C000617965720000000020203E2047616D6552
:1015D0000000000010B51F20FFF702FD4FF6E0707D
:1015E000FFF7FBFCBAA3012200210846FFF785FDA7
:1015F000BDA3012200211046FFF77FFD4FF6FF70CB
:10160000FFF7EEFC1F20FFF7E8FCBEA3012200213C
:101610000820FFF772FDC0A3012200210920FFF777
:101620006CFD10BD2DE9F041012400250026FEF7D8
:1016300005FEFEF767FD4FF6FF70FFF7D4FCFFF7DE
:10164000C9FF4FF6E070FFF7CBFC1F20FFF7C5FC8A
:10165000B7A3012200210320FFF74FFD4FF6FF70D3
:10166000FFF7BEFC1F20FFF7B8FCB6A30122002144
:101670000420FFF742FDB8A3012200210520FFF757
:101680003CFDBAA3012200210620FFF736FDBC482D
:1016900000686422B0FBF2F1481EB0F1807F00D3F5
:1016A0001DE0481E4FF0E022506150171F22002815
:1016B00004DBD3061F0EB34B1F5408E0D3064FEADA
:1016C000136CB14B00F00F073F1F03F807C000BFBA
:1016D00000204FF0E02290610720106100BFF5E08C
:1016E000FEF7C7FD0546B5423FD0202D05D1042C9D
:1016F00001DB042438E0641C36E0082D05D1012C00
:1017000001DC012430E0641E2EE0012D2CD1012CDF
:1017100009D14FF6FF70FFF766FC012000F0A6FA32
:10172000FFF758FF20E0022C09D14FF6FF70FFF7BA
:101730005AFC022000F09AFAFFF74CFF14E0032C49
:1017400009D14FF6FF70FFF74EFC032000F08EFA30
:10175000FFF740FF08E0042C06D14FF6FF70FFF7BB
:1017600042FC0020BDE8F0812E46012C26D14FF628
:10177000E070FFF735FC1F20FFF72FFC6CA3012260
:1017800000210320FFF7B9FC4FF6FF70FFF728FC9C
:101790001F20FFF722FC6BA3012200210420FFF78A
:1017A000ACFC6DA3012200210520FFF7A6FC6FA36E
:1017B000012200210620FFF7A0FC87E0022C2DD19A
:1017C0004FF6FF70FFF70CFC1F20FFF706FC6FA31E
:1017D000012200210320FFF790FC4FF6E070FFF795
:1017E000FFFB1F20FFF7F9FB6DA30122002104205E
:1017F000FFF783FC4FF6FF70FFF7F2FB1F20FFF7A8
:10180000ECFB55A3012200210520FFF776FC57A32E
:10181000012200210620FFF770FC57E0032C2DD198
:101820004FF6FF70FFF7DCFB1F20FFF7D6FB57A337
:10183000012200210320FFF760FC42A301220021C6
:101840000420FFF75AFC4FF6E070FFF7C9FB1F209A
:10185000FFF7C3FB57A3012200210520FFF74DFC32
:101860004FF6FF70FFF7BCFB1F20FFF7B6FB3FA34F
:10187000012200210620FFF740FC27E0042C25D19F
:101880004FF6FF70FFF7ACFB1F20FFF7A6FB3FA34F
:10189000012200210320FFF730FC2AA301220021AE
:1018A0000420FFF72AFC2CA3012200210520FFF7CA
:1018B00024FC4FF6E070FFF793FB1F20FFF78DFB32
:1018C00041A3012200210620FFF717FC08E70000D2
:1018D0002020202050686F746F2047616C6C657207
:1018E00079202020200000002D2D2D2D2D2D2D2D97
:1018F0002D2D2D2D2D2D2D2D2D2D2D2D2D2D2D2D18
:101900002D0000004D6F766520537469636B205580
:10191000702F446F776E00005072657373205345CB
:101920004C45435420746F207669657700000000B1
:1019300020203E205669657720696D6167652031FA
:1019400000000000202020205669657720696D6125
:10195000676520320000000020202020566965774E
:1019600020696D6167652033000000002020202081
:1019700052657475726E20746F20486F6D6500003B
:101980000000001000E400E018ED00E0202020201E
:101990005669657720696D61676520310000000038
:1019A00020203E205669657720696D616765203289
:1019B0000000000020203E205669657720696D6197
:1019C000676520330000000020203E2052657475BA
:1019D000726E20746F20486F6D65000010B54FF671
:1019E000FF70FFF700FB1F20FFF7FAFA4FF6E070D9
:1019F000FFF7F3FA75A3012200210846FFF77DFBEC
:101A000078A3012200211046FFF777FB4FF6FF7005
:101A1000FFF7E6FA1F20FFF7E0FA10BD2DE9F041CD
:101A2000012400250026FEF709FCFEF76BFB4FF6AC
:101A3000FF70FFF7D8FAFFF7D1FF71480068642202
:101A4000B0FBF2F1481EB0F1807F00D31DE0481ECC
:101A50004FF0E022506150171F22002804DBD3060C
:101A60001F0E684B1F5408E0D3064FEA136C664BF9
:101A700000F00F073F1F03F807C000BF00204FF022
:101A8000E02290610720106100BF9DE0FEF7F1FBAE
:101A90000546B54229D0202D05D1032C01DB0324B6
:101AA00022E0641C20E0082D05D1012C01DC01247A
:101AB0001AE0641E18E0012D16D1012C04D100F0AB
:101AC000D8FBFFF78BFF0FE0022C04D100F052FF90
:101AD000FFF784FF08E0032C06D14FF6FF70FFF7F5
:101AE00082FA0020BDE8F0812E46012C20D14FF66D
:101AF000E070FFF775FA1F20FFF76FFA43A301228A
:101B000000210420FFF7F9FA4FF6FF70FFF768FA9B
:101B10001F20FFF762FA40A3012200210520FFF7F2
:101B2000ECFA41A3012200210620FFF7E6FA4BE080
:101B3000022C27D14FF6FF70FFF752FA1F20FFF754
:101B40004CFA3EA3012200210420FFF7D6FA4FF6FB
:101B5000E070FFF745FA1F20FFF73FFA3AA3012292
:101B600000210520FFF7C9FA4FF6FF70FFF738FA9A
:101B70001F20FFF732FA2CA3012200210620FFF7D5
:101B8000BCFA21E0032C1FD14FF6FF70FFF728FAB3
:101B90001F20FFF722FA29A3012200210420FFF7CA
:101BA000ACFA1DA3012200210520FFF7A6FA4FF68B
:101BB000E070FFF715FA1F20FFF70FFA26A30122A6
:101BC00000210620FFF799FA60E70000202020207E
:101BD0002047616D65204D656E75202020202020F6
:101BE000200000002D2D2D2D2D2D2D2D2D2D2D2DB9
:101BF0002D2D2D2D2D2D2D2D2D2D2D2D2D0000009C
:101C00000000001000E400E018ED00E020203E207D
:101C1000536E616B6500000020202020426C6163E0
:101C20006B4A61636B0000002020202052657475B0
:101C3000726E20746F20486F6D6500002020202098
:101C4000536E616B6500000020203E20426C616392
:101C50006B4A61636B00000020203E205265747562
:101C6000726E20746F20486F6D650000F8B50446F1
:101C700000250026FEF7E2FAFEF744FA4FF6FF7061
:101C8000FFF7B1F94B4800686422B0FBF2F1481E3F
:101C9000B0F1807F00D31DE0481E4FF0E02250617C
:101CA00050171F22002804DBD3061F0E424B1F547F
:101CB00008E0D3064FEA136C404B00F00F073F1FBC
:101CC00003F807C000BF00204FF0E022906107201A
:101CD000106100BF6CE0FEF7CCFA0546012C18D16C
:101CE0001F20FFF77DF94FF6E070FFF776F934A378
:101CF000012200210846FFF700FA3748A0231A46C0
:101D0000282100905020FFF70CFA601EFEF70EFA13
:101D100034E0022C18D11F20FFF762F94FF6E07073
:101D2000FFF75BF92DA3012200210846FFF7E5F933
:101D30003048A023F022282100900846FFF7F1F94F
:101D4000601EFEF7F3F919E0032C17D11F20FFF7EF
:101D500047F94FF6E070FFF740F927A30122002171
:101D60000846FFF7CAF92A48A023942228210090A8
:101D70005620FFF7D6F9601EFEF7D8F94FF6FF7030
:101D8000FFF72EF91F20FFF728F922A301220021D7
:101D90000920FFF7B2F9B5420AD0012D08D1601E23
:101DA000FEF7D8F94FF6FF70FFF71DF90020F8BDD8
:101DB00091E700000000001000E400E018ED00E0F2
:101DC00020202020466F72746E69746520647564EB
:101DD0006520202020000000206000004E424120AD
:101DE000474F415420477261646579204469636BB1
:101DF0002100000022E1010020202020534F4E410D
:101E000052204241542047555920202020000000F4
:101E100021280100507573682053656C6563742038
:101E2000746F20657869740010B502F0A5F80A2176
:101E300090FBF1F201FB1200F749086002F09CF8F8
:101E4000142190FBF1F201FB1200F4490860002418
:101E500012E0F34850F83400EF49096888420AD18B
:101E6000EF4800EBC4004068EC490968884202D1A1
:101E7000FFF7DAFF10BD641CEA4800688442E8DB23
:101E800081230122E5480168E3480068FFF70BF968
:101E900000BFEFE7000500BF011EA0F10100FBD16C
:101EA000704700203BE0E049096831B1012910D0BA
:101EB00002291AD0032930D123E0DC490968D84A25
:101EC00042F83010DA490968091A02EBC002516081
:101ED00023E0D6490968D24A42F83010D44909684B
:101EE000014402EBC002516017E0D0490968014487
:101EF000CB4A42F83010CE49096802EBC00251606B
:101F00000BE0CA490968091AC54A42F83010C849A5
:101F1000096802EBC002516000BF00BF401CC1490C
:101F200009688842BFDB7047BE480068401CBD4955
:101F30000860C0480068401CBE490860BE48006890
:101F400020B1BD480068401EBB490860704710B50D
:101F5000B3480068B0490968884209D1B048406870
:101F6000AE490968884203D1FFF7DEFFFFF75CFF47
:101F7000012412E0AA480068A94951F834108842A7
:101F80000AD1A7484068A64901EBC40149688842C4
:101F900002D10120A9490860641CA248006884425B
:101FA000E8DB10BD10B59F48046827E0601E38B913
:101FB0009E4800689A4908609D48006848601CE097
:101FC000621E974B03EBC2025168621E53F8320047
:101FD00020230122FFF767F8A01E914951F8301025
:101FE000601E8F4A42F83010A01E114601EBC0005F
:101FF0004168601E02EBC0004160641E002CD5DC0D
:1020000001240BE0864A02EBC4025168844A52F86C
:10201000340082230122FFF746F8641C81480068DF
:102020008442EFDB8048006830B101280CD00228E0
:1020300012D0032820D117E0794A51688B23106809
:102040000122FFF730F817E0754A516889231068BC
:102050000122FFF728F80FE0714A516887231068C2
:102060000122FFF720F807E06D4A516885231068C8
:102070000122FFF718F800BF00BF6F480068FFF7A4
:1020800009FFFFF764FF10BD70B506466748046896
:102090006748056816B16948006800B170BD082E30
:1020A00006D0102E61D0202E21D0402E7DD13DE0D3
:1020B00063480068202800D178E05C480068441E2E
:1020C0006048006828B1002C06DA01205B490860EE
:1020D000E4E7002C00DA0924544804600320524944
:1020E0000860082056490860FFF75CFF5EE054482E
:1020F0000068082800D159E04C480068441C514849
:10210000006828B1092C06DD01204C490860C5E7AC
:10211000092C00DD00244548046002204249086083
:10212000202047490860FFF73DFF3FE04448006832
:10213000102800D13AE03E480068451E414800683A
:1021400028B1002D06DA01203C490860A6E7002DE1
:1021500000DA132536480560012033490860402025
:1021600037490860FFF71EFF20E035480068402827
:1021700000D11BE02E480068451C3248006828B199
:10218000132D06DD01202D49086087E7132D00DDA2
:1021900000252748056000202349086010202849B1
:1021A0000860FFF7FFFE01E0FFE700BF00BF00BFD0
:1021B00074E7002007E00121194A42F8301002EBD1
:1021C000C0025160401C174909688842F3DB704720
:1021D00030B50346012B17D1002012E001241A4D1F
:1021E0002C60002100E0491C184CA142FBDB0024BC
:1021F000154D2C60002200E0521C144CA242FBDB67
:10220000401C0328EADB33E000202FE001240E4DC0
:102210002C6000211DE000003C0000104000001078
:10222000C400001024000010280000101C00001042
:10223000200000104C000010380000104400001076
:102240005000001048000010F0063823C0C62D00D2
:10225000491CC14CA142FBDB0024C04D2C60002274
:1022600000E0521CBC4CA242FBDB401C0228CDDB30
:1022700030BD2DE9F04F8FB00027BB4666E14FF02F
:1022800001090126B0460020B5490860B54908603B
:10229000B54908601020B54908600F20B4490860AE
:1022A0000220B44908600520B34908600A20B349F8
:1022B00008600020B2490860B2490860B24908606D
:1022C0004FF6FF70FEF78FFE1F20FEF789FE4FF6D8
:1022D000E070FEF782FEADA3012200210846FEF762
:1022E0000CFFB0A3012200211046FEF706FF4FF6B7
:1022F000E070FEF775FE1F20FEF76FFEAFA3012210
:1023000000210420FEF7F9FE4FF6FF70FEF768FE8D
:102310001F20FEF762FEABA3012200210520FEF77D
:10232000ECFEABA3012200210820FEF7E6FEADA3E0
:10233000012200210920FEF7E0FE59E0FDF799FF98
:102340000446012C3BD0082C1DD0202C4FD14FF639
:10235000FF70FEF745FE1F20FEF73FFEA7A30122F8
:1023600000210420FEF7C9FE4FF6E070FEF738FEAC
:102370001F20FEF732FEA3A3012200210520FEF755
:10238000BCFE022633E04FF6E070FEF729FE1F2068
:10239000FEF723FE89A3012200210420FEF7ADFEF3
:1023A0004FF6FF70FEF71CFE1F20FEF716FE85A3FA
:1023B000012200210520FEF7A0FE012617E0012ED4
:1023C00002D1012070490860022E02D100206E491E
:1023D00008604FF000094FF6FF70FEF704FE4FF65D
:1023E000FF70FEF7FDFD1F20FEF7F7FD00BF00BFE9
:1023F000B9F1010FA2D0FFF754FDFFF715FD1EE064
:10240000FDF737FF584908605F48006830B9084653
:102410000068012802D15B49086010E0524800685A
:10242000FFF732FE56487AA102687C4802F0A4F811
:102430007A4B002211461046FEF75FFE00BF51485E
:1024400000680028DCD04FF47840FEF7CCFD4FF454
:102450007840FEF7C5FD4FF6FF70FEF7BEFD484819
:102460000068B84201DB464807683B4644486CA117
:10247000026801A802F080F801AB00221146104664
:10248000FEF73BFE6BA3012200210220FEF735FE82
:102490006CA3012200210720FEF72FFE6CA301226E
:1024A00000210820FEF729FE6CA30122002109204B
:1024B000FEF723FE34480068FFF78AFE4FF0000A5B
:1024C0003EE0FDF7D6FE05462846012D21D008281E
:1024D00010D0202833D163A3012200210820FEF769
:1024E0000CFE63A3012200210920FEF706FE4FF037
:1024F000000824E056A3012200210820FEF7FDFD7C
:1025000056A3012200210920FEF7F7FD4FF0010834
:1025100015E0B8F1000F05D14FF0010B00200FB00E
:10252000BDE8F08FB8F1010F08D14FF0010A00208B
:102530001449086014490860FFF73BFE00BF00BF64
:10254000BAF1000FBDD00520FFF7A4FCBBF1000FCE
:102550003FF495AE0020E2E760E31600F006382372
:10256000280000102C000010300000103400001073
:1025700038000010240000101C0000102000001083
:102580004C000010440000104800001053656C65BA
:10259000637420426F72646572206D6F64653A20C7
:1025A00000000000202020202020202020202020AB
:1025B00020202020202020200000000020203E207D
:1025C000204F4E0020202020204F464600000000D3
:1025D000426F72646572204F4646202D3E20707215
:1025E0006573730053656C65637420746F20657840
:1025F00069742067616D65200000000020202020A4
:10260000204F4E0020203E20204F46460000000074
:1026100053636F72653A202564000000B00000101B
:1026200053434F52453A2025642020484947483AB1
:1026300020256400202020202047414D45204F5672
:1026400045520000506C617920616761696E3F00FE
:102650002020203E2059455300000000202020204B
:10266000204E4F002020202020594553000000001C
:102670002020203E204E4F0070B504460D46012C10
:1026800006D00B2C09D00C2C0CD00D2C14D10EE044
:10269000FAA1284601F070FF14E0F9A1284601F0E4
:1026A0006BFF0FE0F7A1284601F066FF0AE0F6A1F4
:1026B000284601F061FF05E02246F4A1284601F01A
:1026C0005BFF00BF00BF70BD0146012901D10B2097
:1026D00070470B2901DB0A20FAE70846F8E7F0B556
:1026E00005460E4600220024002309E055F8237019
:1026F000012F00D1641C3846FFF7E6FF02445B1C43
:10270000B342F3DB01E00A3A641E152A01DD002C16
:10271000F9DC1046F0BD2DE9F04F8BB00746884636
:1027200015461E46DDE9149A41463846FFF7D7FFA5
:10273000834631462846FFF7D2FF01904FF6FF70DF
:10274000FEF751FC1F20FEF74BFC4FF6E070FEF742
:1027500044FCCFA3012200210846FEF7CEFC4FF631
:10276000FF70FEF73DFC1F20FEF737FC5A46CEA156
:1027700003A801F001FF03AB012200210220FEF7B4
:10278000BCFC00208DF80C00002412E057F8240057
:1027900002A9FFF771FF2CB902AAC6A103A801F094
:1027A000EBFE05E002AB03AAC4A103A801F0E4FE1E
:1027B000641C4445EADB03AB012200210320FEF741
:1027C0009CFCB9F1000F09D0BAF1000F06D1BDA3EE
:1027D000012200210520FEF790FC0AE0BCA103A81D
:1027E000019A01F0C9FE03AB012200210520FEF78A
:1027F00084FC00208DF80C00B9F1000F13D0BAF161
:10280000000F10D1012E09DB02A92868FFF734FF61
:1028100002AAB2A103A801F0AFFE1BE0B2A103A877
:1028200001F0AAFE16E0002412E055F8240002A9E7
:10283000FFF722FF2CB902AA9EA103A801F09CFE7B
:1028400005E002AB03AA9DA103A801F095FE641C5C
:10285000B442EADB03AB012200210620FEF74DFC67
:10286000A2A3012200210920FEF747FC0BB0BDE81E
:10287000F08FF0B589B004460D4616461F461F205E
:10288000FEF7AEFB4FF6E070FEF7A7FB26B19CA16A
:1028900001A801F071FE17E027B19FA101A801F086
:1028A0006BFE11E0AC4204DDA1A101A801F064FEC1
:1028B0000AE0A54204DDA4A101A801F05DFE03E049
:1028C000A7A101A801F058FE01AB01220021084692
:1028D000FEF713FC4FF6FF70FEF782FB1F20FEF79A
:1028E0007CFB09B0F0BD10B50246E2B1012A02D06E
:1028F000022A3DD124E0002112E001239E4C2360F6
:10290000002000E0401C9D4B9842FBDB00239A4CCA
:102910002360002000E0401C984B9842FBDB491CE0
:102920000329EADB24E00123934C2360002000E02C
:10293000401C934B9842FBDB00238F4C236017E035
:10294000002112E001238C4C2360002000E0401C99
:102950008C4B9842FBDB0023874C2360002000E077
:10296000401C884B9842FBDB491C0229EADB00BF74
:1029700000BF10BD2DE9F04F91B04FF0000B97E173
:1029800000260025012006904FF000084FF0000AB5
:1029900001F0F2FA0D2190FBF1F201FB1200401C54
:1029A0003146761C0CAA42F8210001F0E5FA0D210F
:1029B00090FBF1F201FB1200401C3146761C0CAA80
:1029C00042F8210001F0D8FA0D2190FBF1F201FB51
:1029D0001200401C29466D1C07AA42F8210001F094
:1029E000CBFA0D2190FBF1F201FB1200401C2946AD
:1029F0006D1C07AA42F8210033E0002001212B467C
:102A000007AACDE9001031460CA8FFF784FE00BFED
:102A1000FDF72FFC0446082C01D0202CF8D1082CFF
:102A20001BD1052E0CDA01F0A7FA0D2190FBF1F273
:102A300001FB1200401C3146761C0CAA42F8210012
:102A400031460CA8FFF74BFE8146B9F1150F08DDA2
:102A50004FF001080020069003E0202C01D1002057
:102A60000690069810B1B8F1000FC6D0B8F1000F6B
:102A700002D100200290A6E0A9E000004100000081
:102A80004A000000510000004B00000025640000D7
:102A90002020202020426C61636B6A61636B2020E0
:102AA0002020202000000000506C617965723A20DF
:102AB000256400005B25735D000000002573205B2A
:102AC00025735D004465616C65723A203F0000002B
:102AD0004465616C65723A20256400005B25735D76
:102AE000205B3F5D000000005B3F5D0055503D48AE
:102AF00069742020444F574E3D5374616E6400004A
:102B000020202020506C6179657220627573747387
:102B10002020202000000000202020204465616C3F
:102B200065722062757374732020202000000000FD
:102B300020202020506C617965722077696E7320A7
:102B40002020202000000000202020204465616C0F
:102B500065722077696E732020202020000000001D
:102B60002020202050757368202874696529202052
:102B70002020202000000000F006382380841E0062
:102B800000093D0040420F00294607A8FFF7A7FDB6
:102B90000746112F0FDA052D0DDA01F0EDF90D21A1
:102BA00090FBF1F201FB1200401C29466D1C07AAA4
:102BB00042F8210001E001200290152F03DD4FF0C3
:102BC000010A0120029002980028DDD000BF3146A2
:102BD0000CA8FFF784FD8146294607A8FFF77FFD73
:102BE0000746B8F1000F02D00020039011E0BAF1BF
:102BF000000F02D0012003900BE0B94502DD012057
:102C0000039006E04F4502DD0020039001E0022022
:102C10000390012000212B4607AACDE90010314680
:102C20000CA8FFF778FD5346424639464846FFF761
:102C300020FE22A3012200210820FEF75EFA22A333
:102C4000012200210920FEF758FA0398FFF74BFEF6
:102C5000002005900120049027E0FDF70AFB0446C0
:102C6000402C08D11EA3012200210920FEF745FABD
:102C70000120049019E0102C08D11EA3012200218C
:102C80000920FEF73AFA002004900EE0012C0CD146
:102C9000049840B94FF6FF70FEF7A5F9A34600204F
:102CA00011B0BDE8F08F0120059005980028D4D020
:102CB000BBF1000F3FF464AE0020F1E7506C617986
:102CC00020616761696E3F00203E205945532020F6
:102CD000204E4F2020202020202020200000000017
:102CE000203E205945532020204E4F2020202020D8
:102CF00020200000202020594553203E204E4F2008
:102D0000202020202020000010B500F0E1F810BDA8
:102D10007047704770471FB5044604F0080010B3B1
:102D2000032000F0DCFF2B4909682B4A128802239C
:102D300003FB0211884217D02748008880302649BB
:102D4000088008460088C0F309000880084600880B
:102D500022490988401AC0F30900B0F5007F0AD162
:102D600001201F49087006E000201D4908701A481C
:102D700000881A4908800A20F0B1164800681649F0
:102D80000988022202FB010000900420ADF8040033
:102D90000020ADF806001348006802900020039060
:102DA000039820F00200801C03906946032000F085
:102DB000DEFE032000F057FF1FBD704770477047CD
:102DC000704770477047704770477047704770474B
:102DD0007047000090000010960000109400001052
:102DE000980000108C00001035488088B0F5007FF6
:102DF00038D13348807890BB3148C078012802D060
:102E000002282ED10AE02E484078812805D12D488D
:102E100000782D4908700120704722E0284840784A
:102E2000812806D082280AD083280DD0842817D183
:102E300010E026480088244908800120ECE70020A3
:102E4000214908800120E7E74FF480701E4908807F
:102E50000120E1E704201C4908800120DCE701E0B3
:102E600000BF00BF0020D7E715488088B0F5007F7D
:102E700020D113488078E8B91148C078012802D0E1
:102E8000022816D10AE00E484078012805D10E48E4
:102E900000780C490870012070470AE00848407823
:102EA000012805D108480088084908800120F3E777
:102EB00000BF00BF0020EFE70020704700207047F0
:102EC0007800001080000010E4030010540000108F
:102ED0000020EB490880EB490870EB4908704FF07F
:102EE0000110EA4908600020E9490860E9490860E2
:102EF000704710B5E849002000F0BEFD10BD10B5C8
:102F0000E6488088402801DD402401E0E3488488C9
:102F1000E24822460168802000F0DFFD0446DF48D9
:102F200000682044DD49086008468088001B8880CE
:102F300010BD10B5D9480168002000F09DFD044681
:102F4000D64800682044D549086008468088001BA0
:102F5000888010BD10B500221146802000F0BDFD14
:102F600010BD10B5CE49002000F086FD10BD10B593
:102F70000446082C6FD2DFE804F06E04F2F16E6EA6
:102F8000F0EFFFF7B6FFC4490978C80900F02BFD40
:102F9000C148C088C1498880BF480078C0F341104B
:102FA00010B1012879D190E0BB4840780C2875D247
:102FB000DFE800F0060D8815881D333A41555C8125
:102FC00001F090F800B9E1E0FFF799FF7BE0002005
:102FD00001F0E8F800B9D9E0FFF7BCFF73E0012089
:102FE00001F0E0F800B9D1E0FFF7B4FF6BE000BFFB
:102FF000A948007800F01F0030B9A748807840F059
:103000008000A049087001E0002001E000BF01201D
:1030100000B9BBE0FFF79EFF55E001F007F800B9EB
:10302000B4E0FFF76CFF4EE0002000F004FD00204C
:103030009A49888047E000BF9748007800F01F0059
:1030400018B991489549086001E0002001E000BFEF
:10305000012008B99AE011E1FFF751FF33E001F0D8
:1030600017F900B992E0FFF775FF2CE000BF8A481E
:10307000007800F01F00012814D18348007870B157
:103080008548007987490978884208DA82480079BA
:10309000854908448149086003E076E012E0002099
:1030A00004E001E0002001E000BF012000B96DE074
:1030B000FFF725FF07E001F0C7F900B966E0FFF769
:1030C00049FF00E062E000BF67E07348007800F06D
:1030D0001F0020B1012803D0022854D12DE055E073
:1030E0006D48007938B16C480079012803D06A48EE
:1030F0000079022820D16848407882280BD004DC6F
:10310000012814D0812816D104E0832804D0842813
:1031100011D102E000BF00BF00BFFFF765FE28B17C
:103120005F485E490860FFF7EAFE2DE003E05C4877
:103130005A49086028E000BF28E0574840788228B4
:103140000FD004DC012818D081281AD108E0832888
:1031500008D0842815D106E08CE087E06DE01EE001
:1031600000BF00BF00BFFFF7A7FE28B14C484B4986
:103170000860FFF7C4FE07E003E0494847490860DC
:1031800002E000BF02E001E007E000BF802000F0A5
:1031900052FC00204149888000BF00BF6EE03E48DD
:1031A0000078C00980BB3D48808870B3FFF7C1FE3E
:1031B0003A48808848BB38480078C0F3411010B1C5
:1031C000012835D100E0E1E73348007800F01F0026
:1031D00020B1012803D0022828D11AE0D6E72E48D2
:1031E000007938B12C480079012803D02A480079A9
:1031F00002280DD128484078012808D1FFF734FE75
:1032000020B1FFF7A7FE12E014E015E000BF00BFF9
:10321000BCE721484078012806D1FFF74FFE10B1E6
:10322000FFF798FE03E000BF00BFAFE7AEE700E0A6
:10323000ACE701E0FFF795FE20E017480078012198
:10324000B1EBD01F02D1FFF75AFE0EE00D48007817
:1032500000F0800048B10B48007800F07F00094979
:1032600008700846007800F0B1FA07E0002000F08E
:10327000EFFB03E0802000F0EBFB00BF00BF10BDC0
:10328000580000105A0000105B0000105C00001095
:103290006000001064000010780000107000001042
:1032A000E4030010680000106900001070B50546C6
:1032B000002403E02046FCF74DFF641CAC42F9DD1E
:1032C00070BD10B5FCF71EFFDF48006840F080704D
:1032D000DD49086000BFDC48446804F00040002875
:1032E000F9D0D948006820F08070D7490860F820EC
:1032F00000EA1420082101EAD4110844D3490880C7
:103300000846008800280ADD08460088242806DCD4
:103310000720FCF70BFF0620FFF7C8FF60E0CB4853
:10332000008824280ADDC9480088482806DC0620D1
:10333000FCF7FCFE0520FFF7B9FF51E0C348008809
:1033400048280ADDC14800886C2806DC0520FCF707
:10335000EDFE0420FFF7AAFF42E0BC4800886C287D
:103360000ADDBA480088902806DC0420FCF7DEFE5F
:103370000320FFF79BFF33E0B448008890280ADD64
:10338000B2480088B42806DC0320FCF7CFFE0220F8
:10339000FFF78CFF24E0AD480088B4280ADDAB4875
:1033A0000088D82806DC0220FCF7C0FE0120FFF7C9
:1033B0007DFF15E0A5480088D8280ADDA3480088CD
:1033C000FC2806DC0120FCF7B1FE0020FFF76EFFB1
:1033D00006E09E480088FC2802DD0020FCF7A6FEDF
:1033E00010BD70B501209A49086087E0FCF741FFE5
:1033F0000646012E0ED100BF9648006800F4E0603A
:1034000095490843001D93490860BFF34F8F00BFE3
:1034100000BFFEE791480078002836D09048006849
:103420009049098830F911408F4800888D490988F2
:10343000401AC0F30905B5F5607F04D189480088BA
:10344000401C88490880802D04D986480088401C8B
:103450008449088083480088C0F3090081490880B6
:10346000002C05DA81480068001B8049086004E0F0
:103470007E48006820447D4908607D4800684443D8
:10348000241404F50044A4B201E04FF40044794848
:10349000007808B14FF400444FF6C07020407649E0
:1034A0000860764801880068401C744A1060C1F3C7
:1034B0000900D0B9FFF705FF71480088B0F5004F4B
:1034C00003D100206A49086006E06D4800885F4922
:1034D000098848436649086064480068040D002074
:1034E00062490860072C00DD072401204FF04021CD
:1034F000086000205649086000BF00BF54480068BB
:1035000000287FF473AF70BD0EB5FDF762F85D481B
:10351000406820F470105B4948600846406840F4F9
:10352000101048605848006840F480505649C4392B
:10353000C1F8C4005548444908604FF400404E4962
:1035400008605148E4300068C0F38100029002989E
:1035500030B1012809D002280BD003280ED000BFBB
:103560004B480068800801900DE0494800680190D0
:1035700009E0474800684008019004E044480068BA
:10358000C008019000BF00BF4FF4FA410198B0FBA2
:10359000F1F0401E4FF04021886103204861012076
:1035A00048604FF6FF70FDF71EFD1F20FDF718FD68
:1035B0004FF6E070FDF711FD36A301220021084609
:1035C000FDF79BFD4FF6FF70FDF70AFD1F20FDF78D
:1035D00004FD36A3012200211046FDF78EFD39A31C
:1035E000012200210220FDF788FD3CA301220021D9
:1035F0000320FDF782FD3D489723B4226821009007
:103600004620FDF78EFD012000F013F800F04AF986
:10361000182000F00EF800F0EEF8002000F0D6F8C8
:10362000012000F084F94FF6FF70FDF7DCFC00206C
:103630000EBD00F01F02012191404209920002F1EB
:10364000E022C2F800117047004003409A000010C9
:10365000880000100CED00E00000FA059800001052
:103660009000001094000010960000109C000010C4
:10367000840000108000001000C00840A00000106E
:103680005400001000C00240C4C00F40040E2000CF
:10369000040000102020202020417564696F204D17
:1036A0006F646520202020200000000050757368A2
:1036B0002053656C65637420746F20657869742E7F
:1036C0000000000055736520506F74656E74696F5B
:1036D0006D6574657220746F000000006368616E30
:1036E000676520566F6C756D65000000230D030043
:1036F00001460A07D00E01F0800202B1401C70475B
:103700001021FE4A1160FE49C1F8100200BFFB49BA
:103710000839096801F010010029F8D0704710221B
:10372000F64B1A60F64AC2F8100200BFF34A083A94
:10373000126802F01002002AF8D01022EF4B1A6033
:10374000EF4AC2F8101200BFEC4A083A126802F0C1
:103750001002002AF8D0704710B504460B4610201E
:10376000E64908602046FFF7C3FF4FF4A06141EA35
:103770000040E349C1F8100200BFE0480838006883
:1037800000F010000028F8D01020DC490860DC4868
:10379000C0F8103200BFD9480838006800F01000A7
:1037A0000028F8D010BD01463020D44A1060D4481B
:1037B000C0F8101200BFD1480838006800F020009F
:1037C0000028F8D0CD480C300068704710B504468A
:1037D00044F080004FF4807242EA0041C948FFF78C
:1037E0009EFF44F080004FF4807242EA0041C548D9
:1037F000FFF795FF10BD0021C04A40321160402103
:10380000BF4AC2F84C120121BC4A4032116040212B
:10381000BB4AC2F84C1200BFB8490839096801F424
:1038200080710029F8D04FF0FF31B44A3032116076
:103830006FF04001B24AC2F83412C911AF4A1160A8
:103840000D21121F1160B049AC4A783211604FF05F
:10385000FF31AA4A4C321160A84A843211604021DB
:10386000121F11604FF0FF31A44A9C321160A34A2D
:10387000A8321160A14AB432116007219F4A8C32EC
:1038800011600021A14A11605160002007E0002171
:103890009F4A42F820109F4A42F82010401C2028DE
:1038A000F5D3704700B59C48406820F070509A49A5
:1038B00048600846406840F0A05048600846C0682C
:1038C000964908409449C8600846C068944908432E
:1038D0009149C8600846006920F440200861084604
:1038E000006940F4802008618E48006840F0004084
:1038F0008C49C439C1F8C40012208B49086000BF4C
:103900008948001D006800F012001228F8D1182024
:10391000012181404209920002F1E022C2F8001127
:1039200000BFFFF768FF0020FFF750FF00BD10B594
:1039300004460CB1012000E000204FF4807242EAFE
:1039400000417A48FFF7EBFE10BD7047704700B5A5
:103950007748007800F0020018B176497348FFF705
:10396000DEFE00BD704710B504460CB1012000E03A
:1039700000204FF4807242EA00416F48FFF7CFFE0B
:1039800003205E493C31086000BF5C48083800688D
:1039900000F480700028F8D04FF480705749086018
:1039A00010BD10B503469878FFF7A2FE04465348B1
:1039B0003C3000680121A14008435149C1F844024C
:1039C0004E48403004609888C1F84C0200BF4B4814
:1039D0000838006800F480700028F8D04FF4807038
:1039E0004649086010BD704730B504462046FFF7D1
:1039F0007FFE524941EA004589132846FFF78FFEB2
:103A000030BD30B504462046FFF772FE4B4941EA0F
:103A100000454B492846FFF782FE30BD30B50446CD
:103A20002046FFF765FE454941EA004589132846CF
:103A3000FFF775FE30BD30B504462046FFF758FE4F
:103A40003E4941EA00453B492846FFF768FE30BD44
:103A500030B504462046FFF74BFE384941EA0045A1
:103A600089132846FFF75BFE30BD10B50446354983
:103A70002046FFF771FE10BDF0B505460F4605F074
:103A80000F00012101EB80001C492031086000BFBC
:103A90001A481830046804F400600028F8D0C4F311
:103AA0000904002605E01648D0F8180238603F1DCA
:103AB000761CE01CB6EB900FF5D300200F492031A7
:103AC000086041F24820284100F0010018B91D4962
:103AD0002846FFF741FE2046F0BDF0B506460D46EC
:103AE000144606F00F00022101EB8000034920314B
:103AF00008600348C0F8244200272AE008C20050AA
:103B000000C000500005D00000000820A4000010F4
:103B1000240400100000082000C00240CFFFFFCFA7
:103B200010000020C4C00F40F4CF00500005FE007C
:103B300058000010000101000005D80000054000F9
:103B4000000120000005F2002868FE4908602D1DD4
:103B50007F1CE01CB7EB900FF6D30020F9490C3125
:103B60000860F9493046FFF7F7FD2046F0BD2DE922
:103B7000F04381460C46207BC0F340054846FFF7E2
:103B8000B7FD80460027F14850F8283017E01F465F
:103B9000207B00F0010088B9ED4850F82500381A64
:103BA000EC4951F82510B0FBF1F6EB4850F8250030
:103BB0000121B1408843E84941F825003B68002BCA
:103BC000E5D1002608E0E44850F825100120B04077
:103BD000014001B902E0761C202EF4D300BF202E54
:103BE00002D10020BDE8F083DB4850F82510012009
:103BF000B0400143D84840F82510D54850F825007A
:103C0000D44951F8251006FB01034FB1207B00F089
:103C1000010028B13B60786840F00400786005E05E
:103C2000CA4840F82830CD4840F82830002001C369
:103C3000207BC0F38000217BC1F3400140EA0110EA
:103C4000E18840EA4110A18840EA014001C32068B0
:103C500001C3A089C0F30720000201C30DB1A06811
:103C600018600120BEE700B503461846FFF740FD87
:103C700001218140B3486C30016000BD00B50346AE
:103C80001846FFF735FD01218140AE4870300160D4
:103C900000BD30B505462846FFF72AFDAF4951F86B
:103CA00020300BB9002030BDDC68C4F343000A2883
:103CB00012D2DFE800F00507090B111111110D0FE9
:103CC0000120F0E70220EEE70320ECE70520EAE719
:103CD0000420E8E70620E6E74FF6FF70E3E730B59B
:103CE00005462846FFF704FD9C4951F8203013B9DA
:103CF0004FF0FF3030BD9C682046FBE730B50546ED
:103D00002846FFF7F5FC954951F8203013B94FF0DC
:103D1000FF3030BDDC68200CFBE700B59048FFF7B2
:103D2000EFFC9048FFF73FFD03468E48FFF73BFD51
:103D300043EA0023184600BD2DE9F04781481C38AE
:103D4000076807F00800E8B108207E4914390860C8
:103D50008548FFF7D5FC8548FFF725FD064606F0A8
:103D6000100018B1FFF747FDFEF7CEFF06F0080080
:103D700038B106F0040010B1FFF7E7FD01E0FFF7EE
:103D8000E5FDDCE007F0010008B1FEF7C1FF07F038
:103D9000040000284ED04FF000097548D0F830825A
:103DA000002440E0C84500D13FE00120A04000EAE7
:103DB000080060B30120A04040EA0909650801201D
:103DC000A04060491C31086000BF5E481C38006894
:103DD00000F020000028F8D05A480838066804F09F
:103DE0000100A8B954B906F0040038B16148006870
:103DF00020B1604801680120884713E05D4850F811
:103E0000250020B15B4850F825100220884708E0C3
:103E1000584850F8250020B1564850F82510032086
:103E2000884700BF641C202CBCD300BF0420454938
:103E30001439086043487430006800F0010028B36A
:103E400040488430066802241BE00120A040304036
:103E5000B0B1650804F0010048B9464850F82500A3
:103E600070B1444850F825100820884708E04148C0
:103E700050F8250020B13F4850F825100920884708
:103E8000641C202CE1D32F48883006602D48743004
:103E9000006800F0020028B32A4890300668022427
:103EA0001BE00120A0403040B0B1650804F00100E3
:103EB00048B9304850F8250070B12E4850F8251008
:103EC0000A20884708E02B4850F8250020B12948EF
:103ED00050F825100B208847641C202CE1D319488A
:103EE0009430066017487430006800F0040028B36E
:103EF00014489C30066802241BE00120A04030409A
:103F0000B0B1650804F0010048B91A4850F825001E
:103F100070B1184850F825100C20884708E0154863
:103F200050F8250020B1134850F825100D2088477F
:103F3000641C202CE1D30348A030066000BFBDE81C
:103F4000F08700001CC200500005FA002404001095
:103F5000A0E20300A8E20300A40000100000082073
:103F60000005F5000002F5000005FE000002FE005D
:103F700000C000507CE103000649074A086850432E
:103F800043F2390210440860400870470149086054
:103F900070470000AC0000106D4EC64130B50B46B6
:103FA000014600202022012409E021FA02F59D4269
:103FB00005D303FA02F5491B04FA02F52844151E3D
:103FC000A2F10102F1DC30BD202A04DB203A00FA24
:103FD00002F1002070479140C2F1200320FA03F360
:103FE000194390407047202A04DB203A21FA02F05E
:103FF0000021704721FA02F3D040C2F12002914023
:104000000843194670470000064C074D06E0E0687B
:1040100040F0010394E8070098471034AC42F6D30F
:10402000FCF758F8B0E20300E0E2030010B52848BE
:10403000007800F01F0010B101283ED13AE024487A
:10404000C078012804D0022807D003282ED118E018
:104050002048214C206012232AE02049002204E05D
:10406000087808B148880144521C19488078904269
:10407000F6D1087808B9002010BD174801604B88B8
:1040800016E01749002204E0087808B108780144D6
:10409000521C0F4880789042F6D1087808B9002069
:1040A000EAE70D4801600068037801E00020E3E7DB
:1040B00000BF04E000BF0020DEE70020DCE700BF17
:1040C00005488088984201D9034CA3800120D3E79A
:1040D00078000010BCE1030070000010CEE1030086
:1040E0003CE203002748007800F01F0020B10128BF
:1040F00006D0022841D116E02348244B18603EE048
:104100002348007860B11F480079224B1B78984201
:1041100006DA0020204B188018461C4B186001E07E
:10412000002070472BE01748007900F08F0101F064
:10413000800028B101F00F034FF48030984001E077
:104140000120884002461248007810B901F00F00A3
:1041500080B912480068104060B1114800681040F2
:1041600008B1012000E000200B4B18801846074BD7
:10417000186001E00020D4E701E00020D1E700BF93
:104180000120CEE7780000105800001070000010E9
:104190005B00001068000010E40300105C000010D9
:1041A0006000001070B506463348007800F01F002C
:1041B00020B101281DD0022858D11CE02E4840888B
:1041C000012813D146B1FFF7CDFB2C48008840F001
:1041D00002002A4908800BE00020FFF7C3FB2748B4
:1041E000008820F002002549088001E0002070BD11
:1041F0003EE00020FBE72048007900F08F0404F047
:10420000800028B104F00F014FF48030884001E0B5
:104210000120A04005461A48007820B304F00F00A2
:1042200008B3184800682840E8B113484088C0B96E
:1042300046B12046FFF7FFFB1348006828431249A8
:10424000086012E011480068284008B10120CEE75C
:104250002046FFF7FDFB0C480068A8430A490860A8
:1042600003E00020C3E70020C1E701E00020BEE733
:1042700000BF0120BBE700007800001058000010CC
:104280005B0000105C000010600000106400001073
:104290002DE9F04100266348007800F01F00002857
:1042A0007ED16048807800287BD05F4D7EE06878C2
:1042B000022804D0042851D0052870D150E0687934
:1042C00058498978884245D15648807857490870BE
:1042D000287957490870002403E000205549085503
:1042E000641C042CF9D3012414E00120A04052499D
:1042F0000968084010B12046FFF783FB4FF4803077
:10430000A0404D490968084018B144F08000FFF70B
:1043100078FB641C102CE8D34FF00110464908606C
:10432000002046490860464908600120FFF71BFB52
:10433000E87900F0400030B14248008840F00100C8
:104340004049088009E03F48008820F001003D49CD
:10435000088002E06888054428E020E0EE781EE04E
:10436000E6B9A87800F08F0404F0800028B104F0CA
:104370000F014FF48030884001E00120A040074643
:104380002D48006838432C4908602846FFF709FB90
:104390002046FFF729FB2046FFF740FB00BF01E066
:1043A0003AE008E000BF2878054400BF28780028DC
:1043B0007FF47DAF26E000201C490870012414E042
:1043C0000120A0401C490968084010B12046FFF7B1
:1043D00018FB4FF48030A04017490968084018B115
:1043E00044F08000FFF70DFB641C102CE8D34FF065
:1043F0000110114908600020104908601049086048
:10440000FFF7B1FA0748807808490978884202D056
:104410000020BDE8F08101E00020FAE700BF0120A4
:10442000F7E7000078000010CEE103005B00001009
:1044300068000010690000105C00001060000010AF
:1044400064000010580000102DE9F05F0027B84606
:10445000BB46B9464248007800F01F00012879D1D8
:104460004048007810B90020BDE8F09F4FF0000AE6
:104470003D4C6AE06078022804D004280BD005285F
:104480005FD11EE0607937490978884202D06088A0
:1044900004445AE055E0A77894F803804FF00009EF
:1044A0002F480079B8420BD12D488078404507D17C
:1044B0004FF0010A2D4810F807B0014601F80780B7
:1044C0003FE027480079B8423AD1A07800F08F0643
:1044D00006F0800028B106F00F014FF480308840CC
:1044E00001E00120B04005461D488078404515D1C7
:1044F0001F48006828431E4908601E480068A843FA
:104500001C4908602046FFF74CFA3046FFF76CFA6A
:104510003046FFF783FA49EA050911E0D8450FD183
:1045200009EA050060B912480068A843104908600C
:1045300010480068A8430F4908603046FFF761FA49
:1045400000BF00BF2078044400BF2078002891D12C
:1045500002E0FFE7002087E700BF504684E7000045
:10456000780000105B000010CEE10300690000102D
:104570005C000010600000100FB4084B10B504A9D7
:1045800002AA039800F01AF8044602A9002000F0DD
:10459000F1F8204610BC5DF814FB000075470000E0
:1045A00002E008C8121F08C1002AFAD17047002093
:1045B00001E001C1121F002AFBD170472DE9FF4F16
:1045C0008BB09A460F460546002606E025280BD0FC
:1045D00052460D9990476D1C761C28780028F5D11D
:1045E0000FB03046BDE8F08F0024A046012260499C
:1045F00000E0044315F8013F203B02FA03F00842B3
:10460000F7D128782E2817D115F8010F44F00404AB
:104610002A280ED06FF02F022878A0F13001092946
:104620000AD808EB880102EB410100EB01086D1C80
:10463000F2E757F8048B6D1C287869283ED006DC19
:104640000028CDD063280BD0642804D136E073282D
:1046500010D075284BD052460D999047761C85E0B6
:1046600017F8040B8DF8000000208DF80100E946D2
:10467000012003E057F8049B4FF0FF3061074FF033
:10468000000401D40AE0641C44450DDA8442FADBDC
:1046900019F804100029F6D106E0641C8442FCDB02
:1046A00019F804100029F8D1264404E019F8010B88
:1046B00052460D999047641EF8D257E001CF4FF053
:1046C0000A0B002802DA40422D2102E0210504D520
:1046D0002B218DF82410012103E0E10705D02021D2
:1046E000F7E70DF1200908910CE00021F9E701CF6F
:1046F0004FF00A0BF9E75946FFF750FC01F1300281
:1047000009F8012D0028F6D1ADEB090000F1200BCE
:10471000600701D44FF00108D84502DDA8EB0B007B
:1047200000E000208046002406E009A85246005D13
:104730000D999047641C761C08988442F5DB04E0D0
:10474000302052460D999047761CB8F10001A8F12F
:104750000108F5DC05E019F8010B52460D99904768
:10476000761CBBF10001ABF1010BF4DC6D1C34E7EE
:10477000092801000A68531C0B6010707047000084
:1047800000000000000004040404040004000A0AFD
:104790000A00000000000A0A1F0A1F0A0A00041E7D
:1047A000050E140F04000313080402191800020573
:1047B0000502150916000C0C040200000000080494
:1047C00002020204080002040808080402000004AF
:1047D000150E0E1504000004041F04040000000060
:1047E00000000C0C04020000001F0000000000008C
:1047F0000000000C0C0000100804020100000E1163
:10480000131519110E000406040404040E000E1101
:10481000100E01011F001F10080C10110E00080CD3
:104820000A091F0808001F010F1010110E001C02BA
:10483000010F11110E001F101008040201000E11CB
:10484000110E11110E000E11111E100807000000AC
:10485000040004000000000004000404020010082A
:1048600004020408100000001F001F0000000204E2
:104870000810080402000E11100C040004000E11B0
:10488000151D0D011E00040A11111F1111000F1139
:10489000110F11110F000E11010101110E000F1166
:1048A000111111110F001F01010F01011F001F0144
:1048B000010F010101001E11010119111E0011114A
:1048C000111F111111000E04040404040E001C0831
:1048D000080808090600110905030509110001016E
:1048E000010101011F00111B1515151111001111F6
:1048F0001315191111000E11111111110E000F11C4
:10490000110F010101000E111111150916000F11EF
:10491000110F050911000E11010E10110E001F15C7
:104920000404040404001111111111110E001111DD
:104930001111110A04001111111515150A00111198
:104940000A040A11110011110A04040404001F10C2
:10495000080E02011F001E02020202021E000001D8
:104960000204081000001E10101010101E00040A8F
:104970001100000000000000000000001F000606FB
:10498000040800000000000006080E091E000101D6
:104990000D1311130D0000000E1101110E00101067
:1049A00016191119160000000E111F010E0008142F
:1049B000040E0404040000000E191916100E010163
:1049C0000D13111111000400060404040E00080068
:1049D0000808080906000101090503050900060485
:1049E000040404040E0000000B151515150000004A
:1049F0000D131111110000000E1111110E00000015
:104A00000D13130D010100001619191610100000E6
:104A10000D130101010000001E010E100F0004041F
:104A20001F040414080000001111111916000000E1
:104A30001111110A04000000111115150A000000DF
:104A4000110A040A1100000011111E10110E0000BD
:104A50001F0804021F0008040402040408000404E0
:104A60000400040404000204040804040200021503
:104A7000080000000000000000000000000000002E
:104A80000C12120C000000000C1E1E0C0000000096
:104A90001E12121E000000001E1E1E1E000000003E
:104AA0000C0C121E000000000C0C1E1E000000006A
:104AB0001E120C0C000000001E1E0C0C000000005A
:104AC0001816161800000000181E1E18000000001E
:104AD000061A1A0600000000061E1E06000000004E
:104AE0000C12120C000000000C1E1E0C0000000036
:104AF0001E12121E000000001E1E1E1E00000000DE
:104B000000000000000000000000000000000000A5
:104B10000000000000000000000000000000000095
:104B20000000000000000000000000000000000085
:104B3000800180018001800180018001800180016D
:104B4000800180018001800180010000000080015F
:104B500080010000000000000000000000000000D4
:104B60000000CC00CC00CC00CC00CC00CC0000007D
:104B70000000000000000000000000000000000035
:104B80000000000000000000000000000000000025
:104B900000000000000000000000600C600C600CD1
:104BA00030063006FE1FFE1F300638071803FE1FB2
:104BB000FE1F180318038C018C018C0100000000FB
:104BC0008000E003F80F9C0E8C1C8C188C00980061
:104BD000F801E007800E801C8C188C189C18B80C0B
:104BE000F00FE003800080000000000000000000E3
:104BF000000000000E181B0C110C11061106110309
:104C000011039B018E01C038C06C60446044304485
:104C100030441844186C0C380000000000000000FC
:104C2000E001F0033807180618063003F001F00021
:104C3000F8009C310E33061E061C061C063FFC7352
:104C4000F021000000000000000000000000000053
:104C500000000C000C000C000C000C000C0000000C
:104C60000000000000000000000000000000000044
:104C70000000000000000000000000000000000034
:104C8000000200038001C000C0006000600030002E
:104C90003000300030003000300030003000600064
:104CA0006000C000C000800100030002000000009E
:104CB00020006000C00080018001000300030006A6
:104CC00000060006000600060006000600060003B7
:104CD000000380018001C00060002000000000008F
:104CE00000000000000000000000C000C000D80666
:104CF000F807E00130033807000000000000000062
:104D000000000000000000000000000000000000A3
:104D10000000000000000000000080018001800110
:104D200080018001FC3FFC3F800180018001800107
:104D300080010000000000000000000000000000F2
:104D40000000000000000000000000000000000063
:104D50000000000000000000000000000000000053
:104D600080018001000100018000000000000000BF
:104D70000000000000000000000000000000000033
:104D8000000000000000E007E00700000000000055
:104D90000000000000000000000000000000000013
:104DA0000000000000000000000000000000000003
:104DB00000000000000000000000000000000000F3
:104DC000C000C00000000000000000000000000063
:104DD000000C000C000600060006000300030003A0
:104DE0008003800180018001C000C000C00060001D
:104DF0006000000000000000000000000000000053
:104E0000E003F007380E180C0C180C180C180C18CE
:104E10000C180C180C180C180C18180C380EF0077D
:104E2000E00300000000000000000000000000009F
:104E300000018001C001F00198018801800180011A
:104E4000800180018001800180018001800180015A
:104E500080010000000000000000000000000000D1
:104E6000E003F80F180C0C180C1800180018000CB0
:104E7000000600038001C000600030001800FC1F25
:104E8000FC1F000000000000000000000000000007
:104E9000E001F807180E0C0C0C0C000C0006C00307
:104EA000C007000C001800180C180C18180CF80794
:104EB000E00300000000000000000000000000000F
:104EC000000C000E000F000F800DC00C600C600C79
:104ED000300C180C0C0CFC3FFC3F000C000C000CC0
:104EE000000C0000000000000000000000000000B6
:104EF000F80FF80F180018000C00EC03FC071C0E4C
:104F0000001C0018001800180C181C0C180EF807CC
:104F1000E0030000000000000000000000000000AE
:104F2000C007F00F381C181818000C00CC03EC0F49
:104F30003C0E1C1C0C180C180C18181C380EF00712
:104F4000E00300000000000000000000000000007E
:104F5000FC1FFC1F000C00060006000380038001FC
:104F6000C001C000E0006000600070003000300050
:104F70003000000000000000000000000000000001
:104F8000E003F007380E180C180C180C3806F00760
:104F9000F007180C0C180C180C180C18380CF80F1B
:104FA000E00300000000000000000000000000001E
:104FB000E003F007380E1C0C0C180C180C181C1C05
:104FC000381EF81BE0190018000C000C1C0EF80726
:104FD000F0010000000000000000000000000000E0
:104FE00000000000000000000000800180010000BF
:104FF0000000000000000000000000000000800130
:10500000800100000000000000000000000000001F
:10501000000000000000000000008001800100008E
:1050200000000000000000000000000000008001FF
:10503000800100010001800000000000000000006D
:105040000000000000000000000000000000001050
:10505000001C800FE003F8001800F800E003800F48
:10506000001C001000000000000000000000000014
:105070000000000000000000000000000000F81F19
:10508000000000000000F81F000000000000000009
:105090000000000000000000000000000000000010
:1050A00000000000000000000000000000000800F8
:1050B0003800F001C007001F0018001FC007F001F2
:1050C00038000800000000000000000000000000A0
:1050D000E003F80F180C0C180C180018000C000650
:1050E00000038001C000C000C00000000000C0003C
:1050F000C0000000000000000000000000000000F0
:105100000000E00718180420C229224A114409446B
:105110000944094409221113E20C02400420181822
:10512000E007000000000000000000000000000098
:1051300080038003C006C006C006600C600C3018F7
:1051400030183018F83FF83F1C700C600C6006C037
:1051500006C0000000000000000000000000000089
:10516000FC03FC0F0C0C0C180C180C180C0CFC0796
:10517000FC0F0C180C300C300C300C300C18FC1FD1
:10518000FC0700000000000000000000000000001C
:10519000C007F01F38381C300C700660060006008F
:1051A000060006000600060006600C701C30F01FAA
:1051B000E007000000000000000000000000000008
:1051C000FE03FE0F060E06180618063006300630DF
:1051D000063006300630063006180618060EFE0F9A
:1051E000FE030000000000000000000000000000BE
:1051F000FC3FFC3F0C000C000C000C000C00FC1FE2
:10520000FC1F0C000C000C000C000C000C00FC3F00
:10521000FC3F000000000000000000000000000053
:10522000F83FF83F18001800180018001800F81F81
:10523000F81F1800180018001800180018001800AF
:105240001800000000000000000000000000000046
:10525000E00FF83F3C780E6006E007C00300030053
:1052600003FE03FE03C007C006C00EC03CF0F83FBB
:10527000E00F00000000000000000000000000003F
:105280000C300C300C300C300C300C300C30FC3F3F
:10529000FC3F0C300C300C300C300C300C300C302F
:1052A0000C300000000000000000000000000000C2
:1052B00080018001800180018001800180018001E6
:1052C00080018001800180018001800180018001D6
:1052D000800100000000000000000000000000004D
:1052E000000600060006000600060006000600068E
:1052F0000006000600060006180618063807F00328
:10530000E0010000000000000000000000000000BC
:1053100006300618060C060606038601C60066005F
:105320007600DE008E0106030606060C061806301F
:105330000660000000000000000000000000000007
:10534000180018001800180018001800180018009D
:105350001800180018001800180018001800F81F8E
:10536000F81F000000000000000000000000000026
:105370000EE01EF01EF01EF036D836D836D836D8DD
:1053800066CC66CC66CCC6C6C6C6C6C6C6C686C30E
:1053900086C30000000000000000000000000000C4
:1053A0000C301C303C303C306C306C30CC30CC306D
:1053B0008C310C330C330C360C360C3C0C3C0C385A
:1053C0000C300000000000000000000000000000A1
:1053D000E007F81F1C380E70066003C003C003C04E
:1053E00003C003C003C003C006600E701C38F81F62
:1053F000E0070000000000000000000000000000C6
:10540000FC0FFC1F0C380C300C300C300C300C181E
:10541000FC1FFC070C000C000C000C000C000C0026
:105420000C00000000000000000000000000000070
:10543000E007F81F1C380E70066003E003C003C0CD
:1054400003C003C003C007E006630E3F1C3CF83FE7
:10545000E0F700C0000000000000000000000000B5
:10546000FE0FFE1F06380630063006300638FE1FD7
:10547000FE0706030606060C061806180630063058
:1054800006600000000000000000000000000000B6
:10549000E003F80F1C0C0C180C180C001C00F8038F
:1054A000E00F001E0038063006300E301C1CF80FCE
:1054B000E007000000000000000000000000000005
:1054C000FE7FFE7F800180018001800180018001DC
:1054D00080018001800180018001800180018001C4
:1054E000800100000000000000000000000000003B
:1054F0000C300C300C300C300C300C300C300C30CC
:105500000C300C300C300C300C300C301818F81FEC
:10551000E0070000000000000000000000000000A4
:1055200003600630063006300C180C180C18180CE6
:10553000180C380E30063006700760036003C00197
:10554000C00100000000000000000000000000009A
:105550000360C361C361C361663366336633663318
:10556000663366336C1B6C1B6C1B2C1A3C1E380E8E
:10557000380E0000000000000000000000000000E5
:105580000FE00C7018303018700C600EC0078003EC
:105590008003C003E006700C301C18180C300E603D
:1055A00007E0000000000000000000000000000014
:1055B00003C006600C301C383818300C6006E00759
:1055C000C003800180018001800180018001800191
:1055D000800100000000000000000000000000004A
:1055E000FC7FFC7F006000300018000C0006000308
:1055F0008001C0006000300018000C000600FE7F33
:10560000FE7F00000000000000000000000000001D
:10561000E003E00360006000600060006000600084
:10562000600060006000600060006000600060007A
:105630006000600060006000E003E0030000000024
:1056400030003000600060006000C000C000C0009A
:10565000C0018001800180010003000300030006F7
:105660000006000000000000000000000000000034
:10567000E003E00300030003000300030003000352
:105680000003000300030003000300030003000302
:105690000003000300030003E003E0030000000038
:1056A0000000C001C00160036003600330063006E3
:1056B000180C180C000000000000000000000000A2
:1056C00000000000000000000000000000000000DA
:1056D00000000000000000000000000000000000CA
:1056E00000000000000000000000000000000000BA
:1056F000FFFFFFFF000000000000000000000000AE
:105700000C000C000C000C000C000C000000000051
:105710000000000000000000000000000000000089
:105720000000000000000000000000000000000079
:1057300000000000000000000000F003F8071C0C4F
:105740000C0C000FF00FF80C0C0C0C0C1C0FF80FCD
:10575000F018000000000000000000000000000041
:1057600018001800180018001800D803F80F380C9B
:10577000181818181818181818181818380CF80FBE
:10578000D80300000000000000000000000000003E
:1057900000000000000000000000C003F007300E11
:1057A000180C1800180018001800180C300EF0071C
:1057B000C003000000000000000000000000000026
:1057C00000180018001800180018C01BF01F301C2B
:1057D000181818181818181818181818301CF01F4E
:1057E000C01B0000000000000000000000000000DE
:1057F00000000000000000000000C003F00F300CAB
:105800001818F81FF81F180018003818301CF00F6F
:10581000C0070000000000000000000000000000C1
:10582000800FC00FC000C000C000F007F007C0002C
:10583000C000C000C000C000C000C000C000C00068
:10584000C000000000000000000000000000000098
:1058500000000000000000000000E00DF80F180E2E
:105860000C0C0C0C0C0C0C0C0C0C0C0C180EF80F7B
:10587000E00D000C0C0C1C06F807F0010000000005
:1058800018001800180018001800D807F80F381C66
:105890001818181818181818181818181818181888
:1058A00018180000000000000000000000000000C8
:1058B000C000C000000000000000C000C000C00028
:1058C000C000C000C000C000C000C000C000C000D8
:1058D000C000000000000000000000000000000008
:1058E000C000C000000000000000C000C000C000F8
:1058F000C000C000C000C000C000C000C000C000A8
:10590000C000C000C000C000F80078000000000027
:105910000C000C000C000C000C000C0C0C060C0312
:105920008C01CC006C00FC009C018C030C030C0669
:105930000C0C00000000000000000000000000004F
:10594000C000C000C000C000C000C000C000C00057
:10595000C000C000C000C000C000C000C000C00047
:10596000C000000000000000000000000000000077
:10597000000000000000000000007C3CFF7EC7E348
:1059800083C183C183C183C183C183C183C183C1F7
:1059900083C10000000000000000000000000000C3
:1059A000000000000000000000009807F80F381CFD
:1059B0001818181818181818181818181818181867
:1059C00018180000000000000000000000000000A7
:1059D00000000000000000000000C003F00F300CC9
:1059E000181818181818181818181818300CF00F5C
:1059F000C0030000000000000000000000000000E4
:105A000000000000000000000000D803F80F380C70
:105A1000181818181818181818181818380CF80F1B
:105A2000D803180018001800180018000000000023
:105A300000000000000000000000C01BF01F301C30
:105A4000181818181818181818181818301CF01FDB
:105A5000C01B0018001800180018001800000000F3
:105A600000000000000000000000B007F00370001C
:105A700030003000300030003000300030003000A6
:105A800030000000000000000000000000000000E6
:105A900000000000000000000000E003F003380EEA
:105AA000180C3800F003C007000C180C380EF00773
:105AB000E003000000000000000000000000000003
:105AC00000008000C000C000C000F007F007C00068
:105AD000C000C000C000C000C000C000C000C007BF
